:020000040801F1
:1000000040C7002035590108E9110108EB1101082A
:10001000ED110108EF110108F111010800000000C5
:10002000000000000000000000000000F3110108C3
:10003000F5110108000000004B9A0108095201085F
:100040004F5901084F5901084F59010899160108E5
:100050004F5901084F5901084F5901084F590108DC
:100060004F5901084F5901084F5901084F590108CC
:100070004F5901084F5901084F5901084F590108BC
:100080004F5901084F5901084F5901084F590108AC
:100090004F5901084F5901084F5901084F5901089C
:1000A0004F5901084F5901084F5901084F5901088C
:1000B000A72101084F5901084F5901084F5901085C
:1000C0004F5901084F5901084F5901084F5901086C
:1000D0004F590108E5580108E32801084F59010864
:1000E0004F5901084F5901084F5901084F5901084C
:1000F0004F5901084F5901084F5901084F5901083C
:100100004F5901084F5901084F5901084F5901082B
:10011000F72C0108612E01084F5901084F590108B9
:100120004F5901084F5901084F5901084F5901080B
:1001300000F002F800F090F80AA090E8000C824469
:100140008344AAF10107DA4501D100F085F8AFF246
:10015000090EBAE80F0013F0010F18BFFB1A43F0A5
:1001600001031847E4CC000004CD0000103A24BF7E
:1001700078C878C1FAD8520724BF30C830C144BF0C
:1001800004680C607047000000230024002500264E
:10019000103A28BF78C1FBD8520728BF30C148BFEA
:1001A0000B6070476E290AF09C80702909F02B863D
:1001B00066290CF0D08065290CF0CD8067290CF001
:1001C000CA806129AFF3008003681B0A28BF41F091
:1001D0008001692909F09C85642909F099857529B0
:1001E00009F096856F290AF0A283782909F0F7852E
:1001F000E9290AF03D83E4290AF03A83F5290AF057
:100200003783EF290AF09F83F82909F0F685036800
:10021000DB0928BF41F0800163290AF0AC82732911
:100220000AF0B182E3290AF05F84F3290AF06484BA
:10023000002070471FB50AF0C3FB04000020002116
:100240000BF028F9401C6060002000210BF00CF935
:10025000E0601FBD10B510BD0AF0ECFC1146FFF7C1
:10026000E9FF00F0AAFE0AF013FD03B4FFF7F2FF66
:1002700003BC05F0BAF9000080F3088870474FF01E
:10028000010080F31388024802490160FEE700BFC5
:100290000CED00E00400FA0510B5FE4CE068401CCF
:1002A000E060FD48D0F8BC11C943C0F8BC11FB495F
:1002B0004AF6AA200860E0680A21401CB0FBF1F26F
:1002C00001FB120120460029406A218902D0C9079A
:1002D0000AD103E041F01001218105E0218989075D
:1002E00002D42189490702D508F040FC05E02189A4
:1002F000090702D50121A170F6E7E078012808D1AD
:100300002079401CC0B22071022802D9002020713F
:10031000E07010BDDF48002141708278012A01D0D1
:10032000016901E081700161491C01220161042918
:1003300003D9082905D98B0703D1C270D84809F021
:1003400075BC704708B5D74DD74ED24C00276A46CA
:100350000021606A08F07EFB2089C006208907D54D
:1003600020F01000208103F053FF03F07EFF30E007
:10037000C007208908D040F020002081208920F08B
:1003800001002081002022E08007208908D540F06C
:1003900040002081208920F002002081012016E009
:1003A0004007208908D540F080002081208920F076
:1003B0000400208102200AE000070AD5208940F4C9
:1003C00080702081208920F008002081032003F024
:1003D0002FFEB5F90010B6F87C00814201DB62788F
:1003E00052B1814204DA67706946A06909F07BF96D
:1003F000E068401C03D003E001206070F4E7E76090
:10040000642004F04FFFA2E7DFF8A0A2DFF8989283
:10041000DFF89C82A74CA84FA84D8CB000263888E6
:10042000000477D500F0CBFFA548B0F804C083786E
:1004300042780178CDE90112CDE9033C417A00917F
:10044000037AC2889FA1984809F0FCFBC9F88C8008
:100450002078F4287DD00EDCF02814D006DC772834
:1004600078D0D12877D0D2281FD1E9E1F22873D0F3
:10047000F328F9D14FE0F538062816D2DFE800F06E
:10048000FD2BD39EFC162888801E81B2894801F07E
:1004900029FE29882A88214411F8021C224412F8D6
:1004A000012C01EB0221814266D010E22888801ED7
:1004B00081B2804801F016FE29882A88214411F86B
:1004C000021C224412F8012C01EB02218142ECD1E2
:1004D000FFF7D5FEFBE12888801E81B2754801F048
:1004E00001FE29882A88214411F8021C224412F8AE
:1004F000012C01EB02218142D7D1A078617800EB79
:100500000121A9F87A102179E27801EB0221A9F8FA
:100510007C1026E0DDE12888801E81B2654801F06C
:10052000E1FD29882A88214411F8021C224412F88E
:10053000012C01EB02218142B7D1288826281BD843
:100540002A885948611C4230D21E09F08CFD298846
:1005500003E07EE0C9E04FE10FE009EB010080F825
:10056000406009F04BFA834648224F49404601F06B
:1005700046FD584609F046FAA7E12888801E81B258
:100580004C4801F0AFFD2A882B88224412F8022C37
:10059000234413F8013C02EB0322824285D12888D0
:1005A0002628E9D82A884048611C1A30D21E09F052
:1005B0005AFD298809EB01000676D2E72888801EBB
:1005C00081B23C4801F08EFD29882A88214411F827
:1005D000021C224412F8012C01EB022181428BD132
:1005E000A078617800EB01200BF0E0F9002253467F
:1005F0000BF040F80AF064FFC9F88000E17889F850
:1006000088106079217900EB01200BF0CFF90022EE
:1006100053460BF02FF80AF053FFC9F88400A17974
:1006200089F889109DE72888801E81B2214801F051
:1006300059FD29882A88214411F8021C224412F805
:10064000012C01EB02218142A8D13E8001F047FA42
:100650003DE12888801E81B2164801F043FD2988BB
:100660002A88214411F8021C224412F8012C01EBC3
:1006700002218142ECD101E00CE158E0A1796079DE
:10068000CDE9000160782379E278A17800F5FA607D
:1006900024E0000000000020000021420030004063
:1006A00040CD0108FC49002058580020000024409B
:1006B000000008081A3200207A000020780000208C
:1006C0002029002025642D25642D25642025643AE9
:1006D00025643A25642025646D73000000F012FF44
:1006E000FD48067001F077F8F1E02888801E81B29D
:1006F000FA4801F0F7FC29882A88214411F8021CE5
:10070000224412F8012C01EB02218142A0D145F6CE
:100710005A20ADF82C0009F071F9834601220BA98B
:10072000EF4801F06CFC584609F06CF9D0E62888D7
:10073000801E81B2E94801F0D5FC29882A8821442D
:1007400011F8021C224412F8012C01EB0221814213
:1007500051D101F040F8E348B0F900B058460BF031
:100760000EF9E14AE14B0BF035F9E14AE14B0AF0B1
:10077000D9FE0AF0A5FE0BF015FBCDE90601DE4817
:10078000B0F900000BF0FBF8002253460AF072FFAC
:10079000CDE90401D948B0F900000BF0F0F80022CF
:1007A00053460AF067FFCDE90201D548B0F90000D1
:1007B0000BF0E5F8002253460AF05CFFCDE900019A
:1007C000D048B0F900000BF0DAF8002253460AF0E6
:1007D00051FFCD4AB2F900200A92DDE90623CDE9A6
:1007E0000823CA4B0246CA48B3F90030CDE9063B9C
:1007F0000B4609F01BFA6AE02888801E81B2B748D0
:1008000001F070FC29882A88214411F8021C224436
:1008100012F8012C01EB0221814258D12A88A11C37
:10082000BC48921F09F01FFC617889F87010E279CA
:10083000A37902EB0322A9F86E203E80012023E079
:100840002888801E81B2A54801F04CFC29882A889E
:10085000214411F8021C224412F8012C01EB022160
:10086000814234D12A88AB48A11C0830921F09F07C
:10087000FAFB617889F87810E279A37902EB032218
:10088000A9F876203E80022000F0F5FF01283FF411
:1008900040AE1CE02888801E81B2904801F022FC06
:1008A00029882A88214411F8021C224412F8012CBC
:1008B00001EB022181420AD1617889F88A109549B9
:1008C00048226A39404601F09AFB04F060FD3E8000
:1008D0002E80642004F0E6FCA1E58AB04FF0000809
:1008E0004FF46177202101A809F024FC8948DFF842
:1008F00008A25038DFF804B2874D884E4FF0000947
:100900000990012003F07EFFB079401CC0B2B071A5
:1009100007281BD2DFE800F01A044089C5DFDE009B
:1009200030784FF00003012811D0102211467CA02E
:1009300003F0BEFF0023202219467CA003F0B8FF7D
:10094000002206231146099804F06BF873E2002296
:1009500011467A4803F0ACFF10220023114670A024
:1009600003F0A6FF00232022194670A003F0A0FF89
:100970005FF0000403F052FD641CA4B2BC42F9D342
:10098000002003F04FFF002206231146099804F0CF
:1009900048F886F800904EE25446BAF900000AF092
:1009A000EEFF0022664B0AF065FE02460B4665A18B
:1009B00001A809F047F900231A46102164A003F0AA
:1009C00077FF00231022194601A803F071FFB4F944
:1009D0000000B0F52A7F01DC60A115E0A0F2A9219A
:1009E000DB2901D85FA10FE0A0F28531132901D8DE
:1009F0005EA109E0A0F29931772901D85EA103E058
:100A0000B0F5826F03DD5FA101A809F01BF9002397
:100A10002022194601A803F04BFF002403F0FEFC3E
:100A2000641CA4B2BC42F9D305E2384858A1B0F91D
:100A3000002001A809F006F900231A46194601A86A
:100A400003F036FF274C55A101A8B4F9002009F0A6
:100A5000F9F800231022194601A803F029FFB4F980
:100A600000000AF08CFF204A204B0AF0B3FF204A16
:100A7000204B0AF057FD0AF055FF82B24AA101A8A7
:100A800009F0E0F800232022194601A803F010FF26
:100A90005FF0000403F0C2FC641CA4B2BC42F9D3B2
:100AA000C9E15C46BBF900000AF069FF0022244B53
:100AB0000AF0E0FD02460B463EA101A809F0C2F88B
:100AC00000231A46194601A803F0F2FE0E48B0F9B9
:100AD000000077E07DE106E15C0000201A32002092
:100AE00000010808FC490020DFE00B93A982F43FD5
:100AF000CAC342AD69DEA13FC4460020F0410020D8
:100B0000284500208C430020984B0020604800209E
:100B100088CD0108C25800202029002000000020B4
:100B2000D1EFB3BED4EBC9F900000000CAB5CAB119
:100B3000BCE0B2E2CFB5CDB3000000005AC301085B
:100B400000002440D4EBC9F93A252E3166644200F6
:100B5000CAB5CAB1CAFDBEDD00000000B5C8BCB64A
:100B60003AD3C500B5C8BCB63AC1BC00B5C8BCB61E
:100B70003AC7E1CEDBC8BE00B5C8BCB63AD6D0CEC7
:100B8000DBC8BE00B5C8BCB63AD6D8CEDBC8BE00FE
:100B9000504D322E353A256475670000504D313086
:100BA000203A25647567000054535020203A25648C
:100BB00075670000B7E7CBD93A252E31666D2F73E4
:100BC0000000000070B101280FD0022810D00328C7
:100BD00011D0042812D0052813D0062814D00728D5
:100BE00015D017E0FE48006813E0FD48406810E0AB
:100BF000FB4880680DE0FA48C0680AE0F8480069E0
:100C000007E0F748406904E0F548806901E0F448EE
:100C1000C06980464246F3A101A809F013F80023F9
:100C20001022194601A803F043FEB4F9000002287F
:100C300001DCEEA145E0C11E0C2901D8EEA140E087
:100C4000A0F11001112901D8EEA13AE0A0F1220192
:100C5000142901D8EEA134E0A0F13701182901D8F8
:100C6000EEA12EE0A0F150011B2901D8EEA128E051
:100C7000A0F16C011E2901D8EEA122E0A0F18B01A8
:100C8000202901D8EEA11CE0A0F1AC01232901D854
:100C9000EEA116E0A0F1D001242901D8EEA110E0C8
:100CA000A0F1F501272901D8EEA10AE0A0F21D115B
:100CB000292901D8EEA104E0A0F247102A2803D880
:100CC000EEA101A808F0BEFF00232022194601A8CA
:100CD00003F0EEFD5FF0000403F0A0FB641CA4B27F
:100CE000BC42F9D3A7E0E848B0F900000BF0C6F920
:100CF000E6490BF0E5F80446E548B0F900000BF0D2
:100D0000BDF9E2490BF0DCF8009020460BF04AF800
:100D100002460B46DFA101A808F094FF00231A4603
:100D2000194601A803F0C4FD00980BF03BF80246F9
:100D30000B46DBA101A808F085FF0023102219460D
:100D400001A803F0B5FDDA48844201DAD9A12EE00A
:100D5000D74840422044B0F5E00F01D2D8A126E0A8
:100D6000DA482044B0F5800F01D2D9A11FE0DB485A
:100D700021184FF40010814201D2D9A117E0DB49BC
:100D80002144B1F5C01F01D2D9A110E0DB492144B3
:100D9000B1F5201F01D2DAA109E0DC4921448142EA
:100DA00001D2DBA103E0DD48844203DBDCA101A822
:100DB00008F048FF00232022194601A803F078FD1F
:100DC0005FF0000403F02AFB641CA4B2BC42F9D318
:100DD00031E0E88840F2E37188422AD3687A0090D3
:100DE0002B7AEA88D1A101A808F02CFF00231A462B
:100DF000082101A803F05CFDA87A01A904F00DF90F
:100E000000231022182101A803F052FD0024A87825
:100E100000906B782A78C9A101A808F013FF01237C
:100E20002022112101A803F043FD641CA4B2BC429E
:100E3000EDD386F806900A2004F034FA61E5684D97
:100E4000C24C283D4FF4FA7742F2283668790728D9
:100E500007D30020687101464FF47F42102001F053
:100E600088FC642004F01EFA03223946104601F083
:100E70003AFC617D0022844802F0CFF9617D0022B6
:100E8000834802F0CAF9617D0022B14802F0C5F939
:100E9000642004F007FA01220021022001F023FC63
:100EA000E17D0022AB4802F0B8F9642004F0FAF9C1
:100EB00001220021104601F016FC217D0022A648E7
:100EC00002F0ABF9304604F0EDF900221146102093
:100ED00001F04FFC642004F0E5F9062214211020F3
:100EE00001F001FCA17D00229C4802F096F9A17D51
:100EF00000229B4802F091F91821944809F0F8F873
:100F00006879401C6871304604F0CCF99EE72DE901
:100F1000FF4106F014FE08F071FD0723914A0746D1
:100F20000021AFF2E50007F010FF04238E4A0021F4
:100F3000AFF2596007F009FF06238C4A0021AFF693
:100F4000373007F002FF0523894A0021AFF60B4036
:100F500007F0FBFE002007F008FD214C283CE06173
:100F6000002007F002FD2062002007F0FEFC606216
:100F700003AD80A00026AFF663430096CDE90105DE
:100F8000012231467F4808F061FAA0617EA0AFF6E9
:100F9000F7430096CDE9010502226421002008F004
:100FA00055FA03A9606108F09EFB032008F0EBF8F6
:100FB000384608F027FDBDE8FF817749754808608D
:100FC00004F032F94FF4A06004F0D4FC04F0BFFB4D
:100FD0004FF4E134204601F0EEFC2046DEE0000054
:100FE00028000020B7E7CFF23A257300B5C8BCB699
:100FF0003ACEDEB7E7000000B5C8BCB63AC8EDB7D8
:10100000E7000000B5C8BCB63AC7E1B7E70000008A
:10101000B5C8BCB63ACEA2B7E7000000B5C8BCB6AA
:101020003ABACDB7E7000000B5C8BCB63AC7E5B7D5
:10103000E7000000B5C8BCB63AC7BFB7E70000007C
:10104000B5C8BCB63ABCB2B7E7000000B5C8BCB67C
:101050003AB4F3B7E7000000B5C8BCB63AC1D2B79E
:10106000E7000000B5C8BCB63ABFF1B7E700000022
:10107000B5C8BCB63AB1A9B7E7000000B5C8BCB660
:101080003ACCA8B7E70000008C43002000002041C4
:1010900028450020CEC2B6C83A252E3166A1E6000A
:1010A000CAAAB6C83A252E31662525524800000046
:1010B0000000C040CAE6CACAB6C83ABAAEC0E40028
:1010C000CAE6CACAB6C83AC0E40000000000D0BEF2
:1010D000CAE6CACAB6C83AC1B9000000000090BE4C
:1010E000CAE6CACAB6C83AC6ABC1B900000070BEEB
:1010F000CAE6CACAB6C83ACEC2C1B900000058BED4
:10110000CAE6CACAB6C83ACAE6CACA00000030BEB1
:10111000CAE6CACAB6C83AC6ABC8C8000000F041A1
:10112000CAE6CACAB6C83AD1D7C8C80025642D25B0
:101130003032642D253032640000000025303264E6
:101140003A253032643A2530326400000232002001
:10115000C4460020984B0020F04100206048002049
:10116000FC4900201C1900201C2100201C29002003
:101170001C1100204D696E75746531355F746D7298
:1011800000000000905F01005365636F6E645F7440
:101190006D7200000000010808ED00E001F0DAFDCA
:1011A00000F0D8FE01F05AFB03F0A4F801F00AFFAA
:1011B00000F006FA40F25371062000F0B5FE04F08C
:1011C00099F804F0E4F8012003F01CFB06F0B1FBF1
:1011D0000323044A0021AFF2C92007F0B6FD06F050
:1011E0009BFCFEE71C0900207047FEE7FEE7FEE7D8
:1011F000FEE77047704700000CB500214B48019195
:101200000091026842F4803202604FF4A0630268E9
:1012100002F400320092019A521C0192009A12B913
:10122000019A9A42F3D10268920333D501210091C9
:101230003F490A6842F010020A600A6822F003027D
:101240000A600A6842F002020A604168416041682F
:101250004160416841F480614160416821F47C1142
:101260004160416841F4E8114160016841F08071DA
:10127000016001688901FCD5416821F003014160EA
:10128000416841F0020141604168C1F381010229D6
:10129000FAD10CBD00910CBD244810B5016841F095
:1012A000010101604168234A114041600168224AFE
:1012B00011400160016821F480210160416821F43E
:1012C000FE0141604FF41F018160FFF795FF1B494C
:1012D0004FF00060086010BD144910B54868184A06
:1012E00010F00C03174803D0042B01D0082B0AD0B0
:1012F00002604968134AC1F30311121D515C026870
:10130000CA40026010BD4A684B6802F470124FF088
:10131000020413F4803F04EB924202D04B689B031B
:1013200001D5094B00E0064B5A43E1E700100240AB
:10133000002002400000FFF8FFFFF6FE08ED00E08D
:1013400000127A004800002000093D0030B56424F6
:10135000B0FBF4F3B0FBF4F5DBB204FB1500132B88
:1013600001D96430C0B200EB90040723B4FBF3F55D
:1013700003FB1544FE4D22440D44800715F8015C23
:101380002A4492B203D1032901D2521E92B2B2FB77
:10139000F3F003FB102030BD81070CD16421B0FBBA
:1013A000F1F201FB120141B94FF4C871B0FBF1F247
:1013B00001FB120008B100207047012070472DE9A1
:1013C000F04705F0E4FCDFF8AC83EB4DB0FBF8F33D
:1013D0008446A888E94EEA4C98423CD0AB8040F263
:1013E000B2774FF4B77A4FF4B6790CE03846FFF78E
:1013F000D3FF20B1534508D3A3F5B77301E0A3F29F
:101400006D137F1CBFB24B45F0D8E780DFF86093C7
:10141000002709F10C090CE0E088FFF7BDFF08B1D7
:10142000012F10D019F80700984204D81B1A7F1C0E
:10143000BFB21C2BF0D27F1C27725B1C6372287812
:10144000012804D007E01D2BF5D31D3BEFE73088C2
:1014500040F008003080BCFBF8F008FB10C0217899
:10146000A9704FF46161B0FBF1F222702278AB7881
:101470009A4206D02A78012A03D1328842F0040227
:10148000328062786A70B0FBF1F201FB12033C22F9
:10149000B3FBF2F3637063786F78BB4206D02B78AE
:1014A000012B03D1338843F001033380B0FBF1F308
:1014B00001FB1300B0FBF2F102FB1100A070607899
:1014C0000A21B0FBF1F201FB120028B9A07818B98B
:1014D000308840F0020030800120287005F088FC40
:1014E00047F6FF71081A4FF47A725043B0FBF1F0DF
:1014F000A080627A217AE088FFF728FFA07200209E
:10150000BDE8F0872DE9F05F99460546DDE90AABB5
:101510000023A0F2B27090460E46822802D301202A
:10152000BDE8F09F40F2B274964FDFF85CC208E06D
:101530002046FFF731FF08B13B4400E06344641CE0
:10154000A4B2AC42F4D3761E894F0024F6B20C3715
:10155000DFF820C20EE0385D40F2A321484303EBE0
:10156000C0132846FFF718FF10B1012C00D16344C7
:10157000641CA4B2B442EED340F2A32108FB01F0F4
:101580007C4903EBC01049420844C9EB4912C2EB45
:10159000092100EB0110CAEB0A1100EB810000EBFE
:1015A0000B0401214FF0C05004F01AFE012005F099
:1015B000B7FC204605F0F4FB05F024FC0020AFE763
:1015C0007CB5002401214FF0C05004F009FE012039
:1015D00005F0A6FC042005F074FC45F25005A84275
:1015E00040D005F045FC012004F08EFD04E0641CB1
:1015F000E4B20A2003F056FE412004F00EFD18B1BB
:10160000FA2C04D301207CBDFA2CF0D3FAE74FF476
:10161000807004F08AFD012004F08CFD05F0F2FBDF
:1016200005F0F6FB0121084605F09AFB05F0EAFB00
:1016300005F09FFB47F6FF7005F0BFFB05F0E2FBEE
:1016400032210F20CDE900010E231D22042140F29A
:10165000E270FFF757FF05F093FB2946042005F0E1
:1016600029FC07E005F0D4FB0121084605F078FBD2
:1016700005F0C8FB03208DF8000000208DF8010064
:101680008DF8020001208DF80300684604F077F918
:10169000FFF795FE00207CBD0EB5012005F0D1FBC3
:1016A00008B1FFF78CFE022005F0CBFB80B10220D1
:1016B00005F0D5FBFFF783FE314883784278017847
:1016C0008DE80E00437A027AC18830A008F0AEFAA5
:1016D000052005F0C4FBBDE80E4005F093BB2DE9E5
:1016E000F05F99460546DDE90AAB0023A0F2B2702F
:1016F00090460E46822801D3012011E740F2B274D1
:10170000204FDFF884C008E02046FFF745FE08B10F
:101710003B4400E06344641CA4B2AC42F4D3761EA4
:10172000134F0024F6B20C37DFF848C00EE0385DE6
:1017300040F2A321484303EBC0132846FFF72CFED9
:1017400010B1012C00D16344641CA4B2B442EED3A6
:1017500040F2A32108FB01F0064903EBC010494207
:101760000844C9EB4912C2EB092100EB01101DE04E
:1017700063C30108805101005C00002008000020C4
:10178000202900200085E2018033E101416C617273
:101790006D2054696D653A25642D25642D256420DE
:1017A00025643A25643A25640A000000CAEB0A1150
:1017B00000EB810000EB0B0401214FF0C05004F05E
:1017C0000FFD012005F0ACFB204605F004FB05F001
:1017D00019FB0020A4E61FB5FFF7F1FD0648848839
:1017E0008378427801788DE81E00437A027AC188B6
:1017F00002A008F01BFA1FBD2029002025642D251A
:10180000642D25642025643A25643A2564202564E6
:101810006D730A002DE9F041064603F0DBFCE24C53
:1018200005464FF4C8773146E04808F0BBFB68B185
:10183000208800040AD5DD4900200860888088716E
:101840002080DB4908800120BDE8F081284603F0B4
:10185000CAFCB842E7DD3146D6A008F0E7F900201F
:10186000F2E710B50146D7A008F0E0F9BDE8104056
:10187000DBA001F0DABA7CB5DD4C0D46012802D0C0
:10188000022836D065E0B4F86E1094F86D00CDE90A
:10189000000194F86C3094F86B2094F86A10D5A08D
:1018A00001F0C3FADDA0FFF7B5FF50B1012D0AD05A
:1018B000DCA001F0BAFAD9A0FFF7ACFF002814D0E1
:1018C00008E0DFA04CE0E1A001F0AFFAD3A0FFF701
:1018D000A1FF40B1C2A001F0A8FAD0A0FFF79AFF83
:1018E00028B1E0A033E0E4A03AE0E8A038E0ECA0C2
:1018F00036E0B4F8761094F87500CDE9000194F85C
:10190000743094F8732094F87210E8A001F08DFA06
:10191000C2A0FFF77FFF48B1012D09D0EDA001F073
:1019200084FABEA0FFF776FFB8B108E0F0A017E098
:10193000F2A001F07AFAB9A0FFF76CFF58B1A8A0A5
:1019400001F073FAB5A0FFF765FF40B1F1A008F010
:101950006DF901207CBDF4A002E0F8A000E0FCA03D
:10196000FFF77FFF00207CBD10B5034605E004783B
:101970008C4201D1521ED2B2401C002AF7D1C01AAB
:10198000C0B210BD0246012000E05043491EC9B25A
:10199000FBD27047F0B50025074604462E46AC46FC
:1019A00020782D2802D14CF0020C641C20782228CB
:1019B00008D02E2806D030380A2803D2761CF6B27A
:1019C000641CEDE75FEA8C7000D57F1C00240BE0FF
:1019D000301B401EC1B20A20FFF7D4FF395D3039F9
:1019E00000FB0155641CE4B2B442F1D35FEA8C7091
:1019F00000D56D422846F0BD70B5064601284ED090
:101A00004221D5A001F011FA84A0FFF703FFE0B353
:101A1000032222216548FFF7A7FF644C744D012E75
:101A2000204443D0FFF7B6FF85F8720001222E2133
:101A30005E48FFF799FF012E20443CD0FFF7AAFF34
:101A400085F8730002222E215848FFF78DFF012EE2
:101A5000204435D0FFF79EFF85F8740003222E2125
:101A60005248FFF781FF012E20442ED0FFF792FF4E
:101A700085F8750002222C214C48FFF775FF012ED6
:101A8000204427D0FFF786FF00E00AE0A5F87600A3
:101A900048225749B54800F0B2FA012070BD4121F3
:101AA000AFE767A0FFF7DDFE002070BDFFF772FF14
:101AB00085F86A00BAE7FFF76DFF85F86B00C1E7AC
:101AC000FFF768FF85F86C00C8E7FFF763FF85F84C
:101AD0006D00CFE7FFF75EFFA5F86E00D8E770B5A1
:101AE000314D00242C80A2A001F09FF9A1A0FFF7A6
:101AF00091FE002857D02C809EA001F096F99EA060
:101B0000FFF788FE38B99BA001F08FF99AA0FFF784
:101B100081FE002847D02C8098A001F086F99CA077
:101B2000FFF778FE00283ED02C809AA001F07DF9C6
:101B300097A0FFF76FFE002835D02C8099A001F008
:101B400074F993A0FFF766FE00282CD02C8099A092
:101B500001F06BF98EA0FFF75DFE002823D02C80EA
:101B60009EA001F062F98AA0FFF754FE00281AD067
:101B70002C809FA001F059F985A0FFF74BFE0028AB
:101B800011D02C80A4A001F050F981A0FFF742FEF3
:101B9000002808D02C80A5A001F047F92C80A5A032
:101BA00008F044F85AE161E17A0000201A3200207E
:101BB0007800002054494D454F55545F4454552DED
:101BC00025730A004454552E2E2E2E54494D454F50
:101BD00055545F44545520202025730A000000000E
:101BE0007573722E636E2341542B530D0000000059
:101BF000585800207573722E636E2341542B534F37
:101C0000434B413D22544350222C2225642E25640F
:101C10002E25642E2564222C25640D007573722EEA
:101C2000636E23007573722E636E2341542B534FE2
:101C3000434B41454E3D226F6666220D0000000079
:101C400041542B534F434B413D0000007573722E9E
:101C5000636E2341542B534F434B41454E3D226FFE
:101C60006E220D00534F434B415F436F6E666967B1
:101C7000206F6B0A0000000041542B534F434B412F
:101C8000454E3D6F6E2D65727200000041542B531E
:101C90004F434B41454E3D6F66662D2D6572720078
:101CA00041542B533D2D2D65727200007573722EB9
:101CB000636E2341542B534F434B423D22544350B8
:101CC000222C2225642E25642E25642E2564222CA8
:101CD00025640D007573722E636E2341542B534F90
:101CE000434B42454E3D226F6666220D00000000C8
:101CF00041542B534F434B423D0000007573722EED
:101D0000636E2341542B534F434B42454E3D226F4C
:101D10006E220D00534F434B425F436F6E666967FF
:101D2000206F6B0A0000000041542B534F434B427D
:101D3000454E3D6F6E2D65727200000041542B536D
:101D40004F434B42454E3D6F66662D2D65727200C6
:101D500041542B533D0000007573722E636E234176
:101D6000542B534F434B25633F0D000000000808E0
:101D70002B2B2B00610000002B6F6B0041542B4874
:101D800045415254454E3D226F6666220D0A0000C1
:101D90004F4B000041542B453D226F6666220D0AD1
:101DA0000000000041542B554154454E3D226F6EBA
:101DB000220D0A0041542B534F434B413D225443C3
:101DC00050222C223131392E32332E3133342E3100
:101DD0003137222C393434390D0A000041542B5349
:101DE0004F434B41454E3D226F6E220D00000000D7
:101DF00041542B534F434B423D22544350222C22FB
:101E00003131392E32332E3133342E313137222CC9
:101E1000393435300D0A000041542B534F434B42A7
:101E2000454E3D226F6E220D0000000041542B53A1
:101E30000D0A00002A2A2A2A2A2A2A2A2A2A2A2A93
:101E40002A2A2A2A2A2A2A2A2A2A2A2A2A2A2A2AF2
:101E50002A2A2A2A2A2A2A2A2A2A0A0016A007F027
:101E6000E5FEAFF2300007F0E1FE012070BD10B5D5
:101E7000012810D042211AA000F0D7FFAFF2642051
:101E8000FFF7C8FC48B120481BA1044608F08AF8B7
:101E900048B1002010BD4121EDE71CA0FFF7E1FC97
:101EA0004FF0FF3010BD1DA1204608F07BF808B1AF
:101EB000012010BD022010BD2D2D2D2D2D2D2D2DDD
:101EC0002D2D2D2D445455B3F5CABCC5E4D6C3B34E
:101ED000C9B9A62D2D2D2D2D2D2D2D2D2D2D0A00E1
:101EE0007573722E636E2341542B534F434B2563FE
:101EF0004C4B3F0D000000003A646973636F6E6ED7
:101F000065637465640000002632002041542B5341
:101F10004F434BA3BF4C4B3F000000003A636F6E32
:101F20006E6563746564000070B504460D4645F245
:101F3000555005F03FF8204605F03FF8284605F0DB
:101F40003FF805F040F8BDE8704005F041B805F0F5
:101F50003AB800007FB50121084604F041F9144861
:101F60001449002400684FF08045B0FBF1F04FF6B3
:101F7000FF71401EADF80410ADF80000ADF806404A
:101F8000ADF802406946284604F008FA01212846C7
:101F900004F0ADFC1C208DF80C0001208DF80D0024
:101FA0008DF80E408DF80F0003A803F0E8FC7FBD0C
:101FB0004800002040420F00008870472DE9F041A2
:101FC00016460F460546002408E000BF37F81410F7
:101FD000284605F0F7F9641CA4B2AD1CB442F5D351
:101FE000BDE8F08110B5002306E000BF30F8024BD9
:101FF00021F813405B1C9BB29342F7D310BD2DE92F
:10200000F05FA0F1006415468A468346B4F5402F80
:1020100053D205F006F8E70AC4F34906C6F5806412
:10202000A54200D82C46DFF8B89000BF4FF0006002
:1020300000EBC72080464FF480622949FFF7D2FFAA
:1020400000204FF6FF7106E0331839F813208A425A
:1020500003D1401C80B2A042F6D3A04225D2404614
:1020600005F04EF80020494607E000BF3AF810207E
:102070008319401C21F8132080B2A042F6D31849DE
:1020800040464FF4806200BFFFF798FFA54210D092
:10209000281B0AEB440AA344002685B24FF480644F
:1020A0007F1CA542C2D82C46C0E72246514658465E
:1020B000EAE7BDE8F05F04F0C8BFBDE8F09F13B5E4
:1020C000012201A9FFF79BFF1CBD10B5002304E00E
:1020D00030F8014BCC545B1C9BB29342F8D310BD3B
:1020E0002C29002070B5FF4DFF22134605F58076A0
:1020F00006E000BF10F8014B54402A5D5A40335DA2
:10210000491E89B2F6D243EA022070BD2DE9F041A2
:10211000144606460D46052900D34D1F4FF0804753
:10212000384604F000FEF0492844012E15D0022E56
:102130001FD0032E29D0042E33D10C6181B2384632
:1021400004F0DDFD1021384604F007FE01221021C5
:102150003846BDE8F04104F0DFBB4C6081B2384640
:1021600004F0C7FD0221384604F0F7FD01220221E8
:10217000EEE78C6081B2384604F0BDFD042138469C
:1021800004F0EBFD01220421E2E7CC6081B2384685
:1021900004F0B3FD0821384604F0DFFD01220821D8
:1021A000D6E7BDE8F08170B502214C07204604F067
:1021B000C8FDCD4D50B10221204604F0CEFD0022D5
:1021C0000221204604F0A8FB6868804704212046CD
:1021D00004F0B7FD50B10421204604F0BEFD0022FA
:1021E0000421204604F098FBA86880470821204677
:1021F00004F0A7FD50B10821204604F0AEFD0022F6
:102200000821204604F088FBE8688047102120461A
:1022100004F097FD00280CD01021204604F09DFD0D
:1022200000221021204604F077FB2869BDE87040A9
:10223000004770BD03F087BA70B5AC4CAB48443072
:1022400014F8C41F0546FFF74DFF2278010A5155C7
:102250002178491CC9B2217048552078401CC1B270
:1022600021702846BDE87040E4E72DE9F0479F4D16
:1022700095F84000002869D029462B788A7948795A
:10228000012602EB00200A79C97805F1D60402EB99
:10229000012189B2032B41D009DC012B58D0022B3C
:1022A00054D1618288B292490880E6754CE0062BD1
:1022B00054D0102B4AD11FFA80F8A4F80C80A87AC9
:1022C000697A8C4F00EB01201FFA80F9A4F80E9078
:1022D00097F88800803709F0E9FE8246404609F009
:1022E000E5FE396809F0F6FE514609F087FD09F070
:1022F000A9FE81490880787A09F0D8FE80464846D0
:1023000009F0D4FE796809F0E5FE414609F076FD52
:1023100009F098FE79490880A67515E0E0802181D2
:10232000297AEA7901EB0221754A89B2618110802C
:10233000744A2089491E108040F2DB50814202D24B
:10234000714960890880667585F8D160BDE8F087BD
:10235000A18088B26D4908802675F5E72182F3E7F0
:10236000624830B40146447891F8402001238978CE
:10237000042C32D007DC012C15D0022C20D0032CE9
:102380000FD130BC71E7052C34D05849062C0978A0
:1023900035D0102C05D1002A03D0012901D180F8B5
:1023A000D53030BC7047002AFBD0B0F8C620A2F56B
:1023B0008072013AF5D10829F3D180F8CF30F0E7E7
:1023C000002AEED0B0F8C820A2F50072013AE8D198
:1023D0000629E6D180F8D030E3E7002AE1D0B0F852
:1023E000CC20A2F50072013ADBD10229D9D180F8C4
:1023F000D230D6E7002AD4D080F8D330D1E7002AF3
:10240000CFD00129CDD180F8D430CAE72DE9F041F1
:10241000364E0D46002706F144012B0A7854012060
:1024200014464054022043540320130A4554042008
:10243000435405204254062006F8C40FFFF7FCFE63
:10244000F772B4727580ACE62DE9F041274E0D4667
:10245000002706F1440101237854022058542B0A26
:1024600043540320130A45540420144643540520C2
:102470004254062006F8C40FFFF7DEFE3773B4722D
:10248000B5808EE62DE9F041184E0D46002706F185
:102490004401012378540320585402232C0A5C542D
:1024A00045540420130A4354052014464254062080
:1024B00006F8C40FFFF7C0FE7773B472F58070E6BC
:1024C0002DE9F041094E0D46002706F14401012394
:1024D00078540420585402232C0A5C5403235D547E
:1024E000130A15E07BC30108640000202C31002092
:1024F000984B00205858002060480020FC490020DC
:102500008C43002028450020C4460020F0410020D4
:102510004354052014464254062006F8C40FFFF722
:102520008BFEB773B47235813BE62DE9F041C84D9F
:10253000002405F144030126E0540520F05402264E
:102540000F0AF7540326F1540421160ACE54C2543C
:10255000062005F8C40FFFF76FFEEC7321E62DE9A6
:10256000F041BB4D002405F144030126E054062050
:10257000F05402260F0AF7540326F1540421160AD8
:10258000CE540521CA5405F8C40FFFF755FE2C742C
:1025900007E6F0B4AE4D002605F14404102730558F
:1025A0000120075502200F0A07550320015504207A
:1025B000062106550520025550000855072085F8CC
:1025C000C40000200DE000BF95F8C4103D290DD8CF
:1025D0001E5C0E5595F8C410491C401C85F8C410AB
:1025E00080B2B0EB420FEFD3F0BC25E6F0BC7047F1
:1025F000984901200870704710B59649044600209C
:10260000087040F63D61944A0320FFF77FFD904932
:1026100091F84000402804D20C5411F8400F401C9F
:10262000087010BD70B58B48017800290ED0884D18
:102630000024047095F84010042905D32846FFF7BC
:1026400051FD08B9FFF78CFE85F8404070BD008849
:1026500040BA70472DE9F0477D4D174688468146C0
:1026600000243A4641464846FFF7D0FE02F0B2FD4C
:102670004FEA0006FFF7D6FF304602F0B4FD82288D
:1026800095F8CF0002DC0028F4D000E008B101206A
:102690005CE6641CE4B2032CE3D3002056E62DE98B
:1026A000F0476B4D17468846814600243A4641461E
:1026B0004846FFF7C9FE02F08DFD0646FFF7B2FF60
:1026C000304602F090FD822895F8D00002DC002808
:1026D000F4D000E008B1012038E6641CE4B2032C19
:1026E000E4D3002032E62DE9F047594D17468846DD
:1026F000814600243A4641464846FFF7C3FE02F0B1
:1027000069FD0646FFF78EFF304602F06CFD95F836
:10271000D11009B1012019E68228F3DD641CE4B26E
:10272000032CE7D3002011E62DE9F047484D17466A
:102730008846814600243A4641464846FFF7C0FE97
:1027400002F048FD4FEA0006FFF76CFF304602F04A
:102750004AFD822895F8D20002DC0028F4D000E07F
:1027600008B10120F2E5641CE4B2032CE3D300209D
:10277000ECE52DE9F047364D1746884681460024A2
:102780003A4641464846FFF7D0FE02F023FD064692
:10279000FFF748FF304602F026FD822895F8D30067
:1027A00002DC0028F4D000E008B10120CEE5641C72
:1027B000E4B2032CE4D30020C8E52DE9F047244D12
:1027C00017468846814600243A4641464846FFF768
:1027D000C6FE02F0FFFC0646FFF724FF304602F07B
:1027E00002FD822895F8D40002DC0028F4D000E035
:1027F00008B10120AAE5641CE4B2032CE4D3002054
:10280000A4E52DE9F047124D1F46904689468246C1
:1028100000243B46424649465046FFF7BAFE02F0C6
:10282000D9FC0646FFF7FEFE304602F0DCFC8228AB
:1028300095F8D50002DC0028F4D000E008B10120B2
:1028400084E5641CE4B2032CE3D300207EE50000A1
:102850002C31002064000020F125010838B5012149
:10286000042003F0B4FC4FF40044ADF80040102005
:102870008DF803000320084D8DF8020069462846B4
:1028800003F027F92146284603F093F9214628460C
:1028900003F08DF938BD00000008014070B5904D7F
:1028A00004460021284604F0A0FF2146284604F0F3
:1028B000AFFF2846BDE87040012104F096BF10B577
:1028C000874C0021143C204604F08FFF4FF4167112
:1028D000204604F09DFF2046BDE81040012104F091
:1028E00084BF70B57F4C40F224452946204603F052
:1028F00033FB002815D02946204603F04CFB204628
:1029000003F0C3FA7648143804F084FFC0F516715A
:1029100075480180418841F400414180BDE8704024
:10292000CDE770BD10B56E4C8CB0143C204604F061
:10293000C5FE6C480021001D00906C48CDE90101E6
:102940004FF41670CDE903018020CDE90501800127
:10295000CDE9081007910A916946204604F01BFF53
:102960000121204604F041FF0CB010BD10B501213B
:102970008CB0084603F022FC594C204604F09EFE21
:1029800058480021001D0090594801901020CDE9C1
:1029900002018020CDE904104001CDE90810069124
:1029A00007910A916946204604F0F5FE0121204670
:1029B00004F01BFFD8E7F0B5064687B001210520DB
:1029C00003F005FC0121480403F00AFC01214948F9
:1029D00003F00EF90424ADF8104018208DF8130010
:1029E000454F03258DF8125004A9384603F071F8BD
:1029F0000820ADF810008DF8134004A9384603F004
:102A000068F804A9384603F064F800240096ADF88D
:102A100008400C20334EADF80440ADF80A00ADF884
:102A20000640ADF80C406946304603F061F90122DA
:102A300040F22551304603F0D8F926208DF81400D5
:102A400002208DF815008DF8165001208DF8170022
:102A500005A802F094FF012240F22441304603F021
:102A6000C4F901224021304603F0D7F90122802128
:102A7000304603F0D2F90121304603F0ACF9FFF7FC
:102A800075FFFFF74FFF1848448007B0F0BD0FB443
:102A90002DE9F041044608AA1548079907F0B4F853
:102AA000134807F0B5FA85B234B12846FFF7F6FEB1
:102AB000BDE8F0015DF814FB00240A4E0C4F0BE05A
:102AC0004021304603F03EFA0028F9D0395D304607
:102AD00003F0D7F9641CA4B2AC42F1D3E8E70000DC
:102AE0008000024000440040780000201A3200209C
:102AF00072340020000230000008014010B58E4CF6
:102B00000021204604F071FEA115204604F080FE4D
:102B10002046BDE81040012104F067BE70B5864D27
:102B2000044628350021284604F05FFE2146284649
:102B300004F06EFE2846BDE87040012104F055BE49
:102B400010B57D4C8CB0204604F0B8FD7B48009059
:102B50007B480021CDE90101A015CDE903018020CA
:102B6000CDE905018001CDE9081007910A91694678
:102B7000204604F010FE0121204604F036FE0CB081
:102B800010BD10B58CB00121022003F017FB6A4C78
:102B90002834204604F092FD68480090694801906E
:102BA00000211020CDE902018020CDE904104FF46E
:102BB0004050CDE90810069107910A9169462046D8
:102BC00004F0E9FD0121204604F00FFED7E770B5BF
:102BD0000546012186B0C80403F002FB0121112043
:102BE00003F0F5FA0121584803F002F8534E361F5E
:102BF000304603F04DF83015ADF8100003208DF885
:102C000012001820514C8DF8130004A9204602F040
:102C100060FFE014ADF8100004208DF8130004A943
:102C2000204602F056FF34208DF8140002208DF863
:102C3000150000248DF8164001208DF8170005A816
:102C400002F09DFEADF808400C20ADF80440ADF850
:102C50000A000095ADF80640ADF80C4069463046D4
:102C600003F046F8012240F22551304603F0BDF84A
:102C7000012240F22441304603F0B7F801224021FE
:102C8000304603F0CAF801228021304603F0C5F82F
:102C90000121304603F09FF8FFF773FFFFF750FF65
:102CA00006B070BD0FB42DE9F041044608AA2548CE
:102CB000079906F0A9FF234807F0AAF985B234B1B5
:102CC0002846FFF72BFFBDE8F0015DF814FB1B4E13
:102CD0000024361F1B4F0BE04021304603F032F931
:102CE0000028F9D0395D304603F0CBF8641CA4B25B
:102CF000AC42F1D3E7E770B5104C40F22445241FF5
:102D00002946204603F028F9002814D029462046F9
:102D100003F041F9204603F0B8F8074804F07AFDC3
:102D2000C0F580710A480180418841F4004141802A
:102D3000BDE87040E2E670BD30040240044C004043
:102D4000423C0020423D00200002300000100140C3
:102D50007C00002030B5044687B00121312003F00B
:102D600036FA0121080503F03BFA6A4D284602F0C5
:102D70008FFFA814ADF8100018208DF81300032061
:102D80008DF8120004A9644802F0A3FE0420ADF8F7
:102D900010008DF8130004A9604802F09AFE00208C
:102DA000ADF80400ADF80600ADF80800ADF80C0071
:102DB0000C20ADF80A0000946946284602F098FFFE
:102DC00035208DF8140002208DF8150001208DF8B3
:102DD00016008DF8170005A802F0D1FD012240F27F
:102DE0002551284603F001F80121284602F0F3FF9F
:102DF0004021284603F0ADF807B030BD2DE9F04181
:102E00000E4607460024434D0BE04021284603F0C0
:102E100099F80028F9D0395D284603F032F8641C8F
:102E2000E4B2B442F1D3BDE8F0810FB43C4810B530
:102E300003AA029906F0E8FE394807F0E9F8394993
:102E40008880012240F22771324802F0CEFF10BC88
:102E50005DF814FB3448018841F40041018070475B
:102E60002DE9F0472B4D40F22551284603F074F828
:102E7000A8B1284603F009F80446AFF227022B4810
:102E800001680420FFF742F927480188284A0A44CC
:102E9000491C0180274914700888401C088040F2B2
:102EA000277A5146284603F057F8DFF874801D4C06
:102EB0004FF4FA6940F22667002668B1A088A0B9ED
:102EC00000225146284602F090FF01221CE0A08813
:102ED000401EA080BDE8F0873946284603F03CF844
:102EE0000028F7D06680A08868B16188284618F865
:102EF000011002F0C6FF6088401C80B26080484527
:102F0000E5D36680E3E7002239462846BDE8F0476E
:102F100002F06BBF0050004000100140001401405F
:102F200072340020423E00207A0000208000002001
:102F30001A3200207800002070B50022754913462F
:102F40005FF00105C1F894316406D1F81861240ED0
:102F500016B144F0010401E004F0FE0410F0800F0B
:102F600002D0C1F89C5101E0C1F89C314006000E2E
:102F7000C1F89451521CD2B2082AE3D3C1F894315B
:102F8000204670BD2DE9F041624FC0F30744C0F305
:102F90000725C6B20020C7F89001032007F5C877BF
:102FA000FFF7CAFF2046FFF7C7FF2846FFF7C4FF19
:102FB0003046FFF7C1FFFF20FFF7BEFF0121396058
:102FC000BDE8F08138B50121042003F000F90320A9
:102FD0008DF802001024504DADF800408DF80340EC
:102FE0006946284602F075FD2020ADF800008DF8F6
:102FF00003406946284602F06CFD4020ADF8000011
:1030000048208DF803006946284602F062FD8020C2
:10301000ADF800008DF803406946284602F059FDDE
:103020003C490120C1F890013C48FFF7ABFF112853
:1030300003D03BA006F0FAFD38BD3DA0FAE72DE92C
:10304000F04115460E460746002404E03019FFF70C
:1030500099FF3855641CAC42F8D3B1E710B503466C
:1030600000201A78802A17D2202A01D22020187036
:103070001878203839B1012908D0022902D1304905
:1030800001EB001010BD46F2C06140E02D4900EB9D
:10309000400001EB800010BD5B78A2F1A1040A2C76
:1030A0001DD8A12B1BD3012908D0C4EB041000EBC1
:1030B000441003EB4000A138400110BD022C06D89B
:1030C000C4EB041000EB441003EB4000A138A92A24
:1030D00001D103F1790000EB40001B4917E0B03A41
:1030E000472AEAD8A12BE8D3C2EB021000EB42102A
:1030F00003EB4000A138012906D00229DDD146F6B4
:10310000C01101EB401010BD104900EB400001EB75
:10311000C00010BD000021420008014042F701003C
:10312000D7D6BFE2B3F5CABCBBAFCAA7B0DC0A00B2
:10313000D7D6BFE2B3F5CABCBBAFB3C9B9A60A00C4
:10314000C0B70300406D060080CF0300C0F203004B
:10315000072813D2DFE800F00406080A0C0E10005E
:10316000FE487047FE487047FE487047FE4870476B
:10317000FE487047FE487047FE4870470020704781
:1031800070B506464FF6FF7000224AF201040FE0C8
:10319000B35C83EA1020002310F0010F4FEA5000C7
:1031A00000D060405B1C9BB2082BF5D3521C92B23E
:1031B0008A42EDD370BD10B5002309B1002206E0AC
:1031C000002010BD30F91240521C234412B28A4232
:1031D000F8DB93FBF1F080B210BD10B5B0F9003010
:1031E000012206E030F912409C4200DD2346521CC9
:1031F00012B28A42F6DB98B210BD10B5B0F90030B9
:10320000012206E030F912409C4200DA2346521CAB
:1032100012B28A42F6DB98B210BDF0B50446D64829
:103220000025012A14D0A9B194F89621218804EB35
:103230004202518094F89611491CC9B284F8961143
:1032400084F89A513C2911D33C2184F896110DE061
:1032500002700BE094F89A11491CC9B284F89A11D3
:10326000042903D384F89A5125806580C3490A88CC
:10327000920641D54278521CD2B24270072A04D13C
:103280004570088820F02000088094F89611A01C52
:10329000FFF791FF064694F89611A01CFFF7ADFFCB
:1032A000074694F89611A01CFFF797FF84F89651F3
:1032B00094F8971104EB4101A1F87C60A4F89260A6
:1032C00094F8971104EB4101A1F83871A4F84E71FC
:1032D00094F8971104EB4101A1F8DA00A4F8F0008A
:1032E00094F89701401CC0B284F897010A2802D3D1
:1032F0000A2084F89701F0BD0A88520644D5427826
:10330000521CD2B24270072A04D14570088820F0BE
:103310004000088094F8971104F17C00FFF74BFF00
:10332000064694F8971104F59C70FFF766FF074670
:1033300094F8971104F1DA00FFF74FFF84F89751E2
:1033400094F8981104EB4101A1F89460A4F8A260EC
:1033500094F8981104EB4101A1F85071A4F85E7142
:1033600094F8981104EB4101A1F8F200A4F80001CF
:1033700094F89801401CC0B284F898010628BAD38A
:10338000062084F89801F0BD0A88120644D54278D8
:10339000521CD2B24270072A04D14570088820F02E
:1033A0008000088094F8981104F19400FFF703FF5F
:1033B000064694F8981104F5A870FFF71EFF07461B
:1033C00094F8981104F1F200FFF707FF84F8985180
:1033D00094F8991104EB4101A1F8A460A4F8D66017
:1033E00094F8991104EB4101A1F86071A4F892716D
:1033F00094F8991104EB4101A1F80201A4F83401F9
:1034000094F89901401CC0B284F899011828BAD3E5
:10341000182084F89901F0BD0A88D205FBD54278BE
:10342000521CD2B24270072A04D14570088820F499
:103430008070088094F8991104F1A400FFF7BBFE96
:10344000064694F8991104F5B070FFF7D6FE0746CA
:1034500094F8991104F58170FFF7BFFE84F8995133
:10346000A4F8D860A4F89471A4F83601F0BD2DE951
:10347000F04F434C97B08046A388A27861782078BB
:1034800001AD85E80F00607A0090237AE288464813
:103490003CA1079006F0D6FB4348444A1A3044A1A9
:1034A0000C9006F0CFFB40481622423044A10B900E
:1034B00006F0C8FB3C48444A563044A10A9006F046
:1034C000C1FBA37862782178607A8DE80F00237AB7
:1034D000E28835483FA16230099006F0B3FB012233
:1034E00000211F48FFF799FE012211461D48FFF7F2
:1034F00094FE012202211948FFF78FFE01220321C9
:103500001948FFF78AFE012204211848FFF785FEBB
:10351000012205211648FFF780FE012206211548E9
:10352000FFF77BFE124C0E4DA4F6AE3000F15A01AF
:1035300015916631149150311391A031129150318F
:103540001191503110915031064E044FDFF8189010
:10355000DFF818B0DFF81CA00F9151E0F041002017
:103560008C43002028450020C446002060480020ED
:10357000FC490020984B0020840000200800002017
:1035800020290020514E3D25303030346425303222
:10359000642530326425303264253032642530327F
:1035A0006425303033643B005C3E00209A58002094
:1035B0004D4E3D25733B466C61673D353B00000039
:1035C00053543D25643B000040E2010050573D2527
:1035D000643B000043503D26264461746154696D8C
:1035E000653D253030303464253032642530326416
:1035F0002530326425303264253032643B000000CF
:10360000503100F55070B8F1000FCDE90D0109D02F
:10361000B8F1010F6ED0B8F1020F7CD0B8F1030FF2
:1036200067D1FDE340F2DB72E7A1159806F00AFBD3
:10363000B5F9000008F0A3F9E54D00222B4608F08B
:1036400019F802460B46E3A1149806F0FBFAB6F906
:10365000000008F094F900222B4608F00BF802460F
:103660000B46E4A1139806F0EDFAB7F9000008F054
:1036700086F900222B4607F0FDFF02460B46E5A126
:10368000129806F0DFFABAF90020EAA1119806F0C4
:10369000D9FAB4F90020EFA1109806F0D3FABBF9DB
:1036A0000020F4A10F9806F0CDFAB9F9000008F057
:1036B00066F900222B4607F0DDFF02460B46F5A116
:1036C0000E9806F0BFFAB4F9000008F058F9F94A6C
:1036D000F94B08F07FF9F94AF94B07F023FF07F09F
:1036E000EFFE08F05FFB02460B46F6A10D9806F0D0
:1036F000A9FA59E340F60302B3A1159806F0A2FA1D
:10370000B5F9A20008F03BF90022B14B07F0B2FF77
:10371000CDE9011000E0DBE0B5F95E0108F02FF91A
:103720000022AB4B07F0A6FF80460091B5F90001DF
:1037300008F025F90022A64B07F09CFF019B03939C
:10374000009B0246CDE900830B46E6A1149806F0E3
:1037500079FAB6F9A20008F012F900229C4B07F0A2
:1037600089FF05460391B6F95E0108F008F90022C9
:10377000974B07F07FFF80460191B6F9000108F0F2
:10378000FEF80022924B07F075FF0B460246E5A1BA
:10379000CDF800800295139806F054FAB7F9A2000C
:1037A00008F0EDF800228A4B07F064FF06468846D1
:1037B000B7F95E0108F0E3F80022854B07F05AFFE5
:1037C00000900D46B7F9000108F0D9F80022804BAF
:1037D00007F050FF024601A80B4680E86001E1A116
:1037E000129806F02FFABAF9A2100091BAF95E31D8
:1037F000BAF90021EBA1119806F024FA34F9A20FCE
:103800000090B4F9BC30B4F95E20F5A1109806F030
:1038100019FABBF9A2100091BBF95E31BBF9002186
:10382000FEA10F9806F00EFA4D46B9F9A20008F075
:10383000A6F80022664B07F01DFF80468946B5F9C1
:103840005E0108F09CF80022614B07F013FF06466A
:103850000F46B5F9000108F092F800225C4B07F022
:1038600009FF8DE8C00302460B46FBA10E9806F047
:10387000E9F9B4F9000008F082F8DFF83CB28D4AAB
:103880005B4608F0A7F8DFF834A2DFF8349252461E
:103890004B4607F047FE07F013FE08F083FA074691
:1038A0008846B4F9BC0008F06AF8824A5B4608F022
:1038B00091F852464B4607F035FE07F001FE08F03E
:1038C00071FA05460E46B4F95E0008F058F8A0E318
:1038D00040F60D023CA1159806F0B4F9B5F9D600F2
:1038E00008F04DF800223A4B07F0C4FECDE9020182
:1038F000B5F9920108F043F80022354B07F0BAFE03
:1039000080460191B5F9340108F039F80022304BB6
:1039100007F0B0FE02460B46CDF8008071A1149866
:1039200006F090F9B6F9D60008F029F80022284BE5
:1039300007F0A0FE05460191B6F9920108F01FF8C4
:103940000022234B07F096FE80460091B6F9340121
:1039500008F015F800221E4B07F08CFE019B024672
:10396000CDE90253009B1398CDE900830B466DA16E
:1039700006F068F9B7F9D60008F001F80022144BF8
:1039800007F078FE06468846B7F9920107F0F7FF80
:1039900000220F4B07F06EFE00900D46B7F9340180
:1039A00007F0EDFF00220A4B07F064FE024601A873
:1039B0000B4680E860016BA1129806F043F9BAF952
:1039C000D610009168E10000434E3D25643B0000A5
:1039D000000024406130313030312D5274643D2577
:1039E0002E31662C6130313030312D466C61673DAF
:1039F0004E3B00006130313030322D5274643D2531
:103A00002E31662C6130313030322D466C61673D8D
:103A10004E3B00006130313030372D5274643D250B
:103A20002E31662C6130313030372D466C61673D68
:103A30004E3B00006130313030382D5274643D25EA
:103A4000642C6130313030382D466C61673D4E3B1F
:103A5000000000006133343030322D5274643D2553
:103A6000642C6133343030322D466C61673D4E3BFF
:103A7000000000006133343030342D5274643D2531
:103A8000642C6133343030342D466C61673D4E3BDD
:103A9000000000006135303030312D5274643D2516
:103AA0002E31662C6135303030312D466C61673DEA
:103AB0004E3B0000DFE00B93A982F43FCAC342AD46
:103AC00069DEA13F6133343030312D5274643D25BD
:103AD0002E31662C6133343030312D466C61673DB8
:103AE0004E2626006130313030312D4D61783D2534
:103AF0002E31662C6130313030312D466C61673D9E
:103B00004E2C6130313030312D4D696E3D252E31D6
:103B1000662C6130313030312D4176673D252E31B4
:103B2000663B00006130313030322D4D61783D25EB
:103B30002E31662C6130313030322D466C61673D5C
:103B40004E2C6130313030322D4D696E3D252E3195
:103B5000662C6130313030322D4176673D252E3173
:103B6000663B00006130313030372D4D61783D25A6
:103B70002E31662C6130313030372D466C61673D17
:103B80004E2C6130313030372D4D696E3D252E3150
:103B9000662C6130313030372D4176673D252E312E
:103BA000663B00006130313030382D4D61783D2565
:103BB000642C6130313030382D466C61673D4E2CBD
:103BC0006130313030382D4D696E3D25642C6130C7
:103BD000313030382D4176673D25643B00000000D0
:103BE0006133343030322D4D61783D25642C6133A2
:103BF000343030322D466C61673D4E2C61333430A9
:103C000030322D4D696E3D25642C613334303032B5
:103C10002D4176673D25643B000000006133343060
:103C200030342D4D61783D25642C6133343030348F
:103C30002D466C61673D4E2C6133343030342D4D50
:103C4000696E3D25642C6133343030342D41766704
:103C50003D25643B000000006135303030312D4D92
:103C600061783D252E31662C6135303030312D465E
:103C70006C61673D4E2C6135303030312D4D696EB1
:103C80003D252E31662C6135303030312D4176673F
:103C90003D252E31663B0000BAF99231BAF9342144
:103CA000FEA1119805F0CEFF34F9D60F0090B4F9BB
:103CB000BC30B4F95E20AFF2D801109805F0C2FF15
:103CC000BBF9D6100091BBF99231BBF93421AFF2A8
:103CD000B4010F9805F0B6FF4D46B9F9D60007F0CC
:103CE0004EFE0022FC4B07F0C5FC80468946B5F924
:103CF000920107F044FE0022F74B07F0BBFC06469A
:103D00000F46B5F9340107F03AFE0022F24B07F0F6
:103D1000B1FC0B460246AFF2C0018DE8C0030E981D
:103D200005F090FFB4F9000007F029FEDFF8B0B30A
:103D3000EA4A5B4607F04EFEDFF8A8A3DFF8A89337
:103D400052464B4607F0EEFB07F0BAFB08F02AF8A4
:103D500007468846B4F9BC0007F011FEDF4A5B460F
:103D600007F038FE52464B4607F0DCFB07F0A8FB95
:103D700008F018F805460E46B4F95E0007F0FFFD9E
:103D8000D64A5B4607F026FE52464B4607F0CAFB72
:103D900007F096FB08F006F802460B468DE8E001B6
:103DA000D2A10D9805F04EFF079806F031F90446B0
:103DB0000C9806F02DF904440B9806F029F90444F8
:103DC000159806F025F904440A9806F021F90444F0
:103DD000099806F01DF90444149806F019F90444F2
:103DE000139806F015F90444129806F011F90444EA
:103DF000119806F00DF90444109806F009F90444EE
:103E00000F9806F005F904440E9806F001F90444F1
:103E10000D9806F0FDF8C5492044888017B000E0F1
:103E200001E0BDE8F08F40F2EF72AFF26441159807
:103E300005F008FFB5F9D80007F0A1FD0022A64B58
:103E400007F018FC02910690B5F9940107F097FD70
:103E50000022A14B07F00EFC80460191B5F8360117
:103E600007F0A4FD00229C4B07F004FC029B069A7D
:103E7000CDE90223CDF8008002460B46AFF29C311B
:103E8000149805F0DFFEB6F9D80007F078FD00229F
:103E9000914B07F0EFFB05460291B6F9940107F04C
:103EA0006EFD00228C4B07F0E5FB80460191B6F8D1
:103EB000360107F07BFD0022874B07F0DBFB029BFE
:103EC0000246CDE90253CDF800800B46AFF2AC318B
:103ED000139805F0B7FEB7F9D80007F050FD00229F
:103EE0007D4B07F0C7FB06468846B7F9940107F0FB
:103EF00046FD0022784B07F0BDFB00900D46B7F859
:103F0000360107F053FD0022734B07F0B3FB024666
:103F10000B46AFF2B03101A880E86001129805F0BD
:103F200091FEBAF9D8100091BAF99431BAF8362155
:103F3000AFF29031119805F085FE34F9D80F00905A
:103F4000B4F9BC30B4F85E20AFF26C31109805F0D3
:103F500079FEBBF9D8100091BBF99431BBF836213A
:103F6000AFF248310F9805F06DFE4D46B9F9D80013
:103F700007F005FD0022584B07F07CFB8046894680
:103F8000B5F9940107F0FBFC0022534B07F072FBDC
:103F900006460F46B5F8360107F008FD00224E4BE5
:103FA00007F068FB02460B46AFF254318DE8C003C0
:103FB0000E9805F047FEB4F9000007F0E0FCDFF8CA
:103FC00020B1464A5B4607F005FDDFF818A1DFF88F
:103FD000189152464B4607F0A5FA07F071FA07F020
:103FE000E1FE07468846B4F9BC0007F0C8FC3B4A2E
:103FF0005B4607F0EFFC52464B4607F093FA07F09A
:104000005FFA07F0CFFE05460E46B4F85E0007F0F3
:10401000CDFC324A5B4607F0DDFC52464B4607F0CA
:1040200081FA07F04DFA07F0BDFE0B460246B5E6F1
:1040300070B506004FF4487401D14FF4E174204686
:1040400005F0BAFD0546214606F052F838480068EA
:1040500001F094F8192802D3354801F050F82946A8
:10406000334801F05AF83046FFF701FA31A12F48E2
:1040700005F0AAFF2D4C30A1A01DA28805F0E2FD9D
:104080002FA030A10088A08104F56670064605F0D7
:104090009BFF2146284605F0DAFF55E061303130BC
:1040A00030382D4D61783D25642C6135303030310C
:1040B0002D466C61673D4E2C6130313030382D4DCE
:1040C000696E3D25642C6130313030382D41766782
:1040D0003D25643B0000000000002440DFE00B931E
:1040E000A982F43FCAC342AD69DEA13F61333430D7
:1040F00030312D4D61783D252E31662C61333430C1
:1041000030312D466C61673D4E2C61333430303197
:104110002D4D696E3D252E31662C613334303031A2
:104120002D4176673D252E31662626004E3E002025
:104130008800002023230000253030303464000044
:10414000300000000D0A0000A11D284605F07FFF89
:1041500004F10C01284605F07AFF04F10E0128460F
:1041600005F075FF04F12801284605F070FF04F101
:104170005001284605F06BFF04F15A01284605F06E
:1041800066FF04F16401284605F061FF04F1700147
:10419000284605F05CFF04F1C001284605F057FFF2
:1041A00004F58871284605F052FF04F5D8712846B9
:1041B00005F04DFF04F50071284605F048FF04F5B1
:1041C0001471284605F043FF04F52871284605F0D0
:1041D0003EFF04F53C71284605F039FF04F55071A7
:1041E000284605F034FFA188E81DFEF7C9FF024606
:1041F00004F5647020A1044605F024FD21462846FC
:1042000005F025FF31462846BDE8704005F01FBF88
:1042100070B50120FDF72BFE194DC6B2286800F0DD
:10422000ADFF044605F064FC0246012E05D0AEB198
:1042300014A0BDE8704005F0F9BC002C14D028682B
:10424000016812A0FEF7F1FD286801680FA005F0D3
:10425000EDFCBDE870400A4800F051BF21460CA0BB
:1042600005F0E4FC13A0E4E770BD1848016818A04D
:10427000491C05F0DBBC000025303030345800000C
:10428000880000204552520D0A00000025730000EE
:10429000C1B4B1EDB3A4B6C83A25642020202020D3
:1042A000C4DAB4E6CAB9D3C3C2CAA3BA2564252501
:1042B0000D0A0000534F434B45544120646973631A
:1042C0006F6E6E65637465640D0A00000C0000205B
:1042D00048656172745F42656174696E672E2E2E47
:1042E0005365636F6E645F636F756E743D25640A1A
:1042F00000000000F8B501215C2001F068FF0320F8
:104300008DF8020010248DF803400620FF4DADF813
:1043100000006946284601F0DCFB0420ADF80000EF
:104320006946284601F0D5FBADF8004069462846AD
:1043300001F0CFFB2020ADF800006946284601F0CF
:10434000C8FBF34E0124ADF800406946304601F049
:10435000C0FB0220ADF800006946304601F0B9FB11
:10436000ADF800406946284601F0B3FBADF80040C7
:104370006946E84801F0ADFB0820ADF80000694649
:10438000284601F0A6FBF8BDF0B5E34B0025E34E4F
:1043900093F88A30E24C2F464FF0010C5FEA006E32
:1043A00008D523B14FF0000EC4F890E104E04FF0BF
:1043B000010EF9E7C4F890315FEA016E08D523B128
:1043C0004FF0000EC4F894E104E04FF0010EF9E75D
:1043D000C4F894315FEA026E08D523B14FF0000EA5
:1043E000C6F880E104E04FF0010EF9E7C6F880312D
:1043F000C4F88CC100BF00BF00BFC4F88C71400678
:10440000490652066D1C000E090E120EEDB2082D63
:10441000C4D3F0BDC348006804F0A8BB2DE9F84F31
:104420000025DFF804B3DFF8F882A9464FF0010A4F
:1044300005EB45070BEB87045E4694F8102294F8D1
:10444000501194F89000FFF79FFF94F8E02194F842
:10445000201194F86000FFF797FF94F8B02194F8CA
:10446000F01094F83000FFF78FFF94F8802194F853
:10447000C01016F82700FFF787FF94F8112294F870
:10448000511194F89100FFF77FFF94F8E12194F81F
:10449000211194F86100FFF777FF94F8B12194F8A7
:1044A000F11094F83100FFF76FFF94F8812194F830
:1044B000C1106078FFF768FF94F8122294F8521147
:1044C00094F89200FFF760FF94F8E22194F822112B
:1044D00094F86200FFF758FF94F8B22194F8F210B4
:1044E00094F83200FFF750FF94F8822194F8C2103C
:1044F000A078FFF749FF94F8132294F8531194F829
:104500009300FFF741FF94F8E32194F8231194F806
:104510006300FFF739FF94F8B32194F8F31094F88F
:104520003300FFF731FF94F8832194F8C310E0784B
:10453000FFF72AFF94F8142294F8541194F8940089
:10454000FFF722FF94F8E42194F8241194F8640012
:10455000FFF71AFF94F8B42194F8F41094F834009B
:10456000FFF712FF94F8842194F8C4102079FFF724
:104570000BFF94F8152294F8551194F89500FFF765
:1045800003FF94F8E52194F8251194F86500FFF7EE
:10459000FBFE94F8B52194F8F51094F83500FFF778
:1045A000F3FE94F8852194F8C5106079FFF7ECFECE
:1045B00094F8162294F8561194F89600FFF7E4FE4A
:1045C00094F8E62194F8261194F86600FFF7DCFED3
:1045D00094F8B62194F8F61094F83600FFF7D4FE5C
:1045E00094F8862194F8C610A079FFF7CDFE94F8D0
:1045F000172294F8571194F89700FFF7C5FE94F826
:10460000E72194F8271194F86700FFF7BDFE94F8AE
:10461000B72194F8F71094F83700FFF7B5FE94F837
:10462000872194F8C710E079FFF7AEFE94F81822BE
:1046300094F8581194F89800FFF7A6FE94F8E82132
:1046400094F8281194F86800FFF79EFE94F8B821BA
:1046500094F8F81094F83800FFF796FE94F8882143
:1046600094F8C810207AFFF78FFE94F8192294F876
:10467000591194F89900FFF787FE94F8E92194F80E
:10468000291194F86900FFF77FFE94F8B92194F896
:10469000F91094F83900FFF777FE94F8892194F81F
:1046A000C910607AFFF770FE94F81A2294F85A1134
:1046B00094F89A00FFF768FE94F8EA2194F82A111A
:1046C00094F86A00FFF760FE94F8BA2194F8FA10A3
:1046D00094F83A00FFF758FE94F88A2194F8CA102B
:1046E000A07AFFF751FE94F81B2294F85B1194F81E
:1046F0009B00FFF749FE94F8EB2194F82B1194F8F6
:104700006B00FFF741FE94F8BB210FE00010014061
:10471000000C014000080140585800200080214250
:104720000000224220000020344D002094F8FB10AD
:1047300094F83B00FFF728FE94F88B2194F8CB10F7
:10474000E07AFFF721FEFA4E4C46C6F8809100BF92
:1047500000BF00BF5046C6F880A135B1012D08D07A
:10476000022D0CD0032D13D10DE04146C8F8844131
:1047700002E04146C8F88401C1F8884108E041469A
:10478000C8F8844102E04146C8F88401C1F88801B4
:104790004746C8F88001AFF283324FF47A710120A6
:1047A000FDF7B4FCE3486A460021006804F052F9C2
:1047B000C7F88041C6F880416D1CEDB2042DFFF4AE
:1047C00037AEBDE8F88F10B501EB41018900DA4B37
:1047D00001EBD00200F00704995C8020E0408143A7
:1047E000995410BD30B401EB41018900D24B01EB6B
:1047F000D00200F00704995C8020E0408143995486
:1048000030BC0BE630B40021CB4BFF224FF41074C8
:104810005A54491CA142FBD3002801D030BCFDE50D
:1048200030BC704730B40021C34BFF2200EB400086
:1048300001EB8004491C1A55C029F9D330BCEDE5C1
:104840000020BD4902464FF410730A54401C9842A0
:10485000FBD3E3E52DE9F0410022042926D2B74E2F
:10486000B54F0378FBB1203BDDB2002301EB4104DF
:1048700003EB430E03EB051C02EB8E0E0EEB841EC6
:104880005B1C16F80CC09BB207F80EC0102BEFD3C0
:10489000521C92B20C2A04D3491C0022C9B203292B
:1048A00001D2401CDDE7BDE8F041B7E5BDE8F0818D
:1048B0002DE9FF4FCC0881B015460646302A08D8AE
:1048C000DFF87CB2DFF87CA29B4FABF500690C2CC3
:1048D00073D905B0BDE8F08F802970D300205A4607
:1048E00012F810308B4206D102EB400393F801C05E
:1048F00073789C4504D0401CC0B24028F0D301E03E
:10490000402823D38DF8001073788DF801309AF881
:104910000000D04602F810100BEB4000022143705B
:104920006846FEF79BFB98F80020014609EB421011
:104930002022FEF784FB98F80000411CCAB288F8D8
:104940000020402A02D3002288F80020002109EB31
:10495000401305EB450200BF01EB410C13F81100B9
:1049600004EB8C0CC0430CEB820C491C89B207F899
:104970000C001029F0D3002000EB400C03EB4001A9
:1049800004EB8C0C49780CEB820CC943BC44401CF2
:1049900080B28CF801101028EED3A41CB078A4B219
:1049A000802801D30B2000E00C20844204D3103572
:1049B0000024EDB2302D2DD2B61C27E0FFE72039C0
:1049C000CAB25E4B002005EB450100BF00EB40087A
:1049D00000EB021C04EB880808EB8108401C13F86C
:1049E0000CC080B207F808C01028EFD3641CB07860
:1049F000A4B2802801D30B2000E00C20844204D311
:104A000010350024EDB2302D04D2761C3178002907
:104A10007FF462AF049800283FF45BAFFFF7FEFC21
:104A200057E72DE9FF4F81B01E4615460C46019809
:104A3000EEE280297BD3424A002000BF12F81030FA
:104A40008B4206D102EB40035F78019B5B789F426B
:104A500004D0401CC0B24028F0D301E0402820D34D
:104A600001988DF80010374F43788DF80130387871
:104A700002F8101002EB4000022143706846FEF776
:104A8000EDFA014630483A7800EB42102022FEF75A
:104A9000D6FA3878411CC9B23970402901D30021B7
:104AA0003970294B022D4FF000017DD203EB401BE2
:104AB00005EB4103244A1BF803006318C043623A24
:104AC000491C89B2D0541029F2D34FF000090020BC
:104AD00015B1012D3AD065E01749002204EB440AD4
:104AE00000EB400702EB870C0CEB8A0303EB010899
:104AF00011F803C098F801804FEA4C0C521C4CEAA4
:104B0000D81C92B201F803C00B2AEBD3021902EBB6
:104B1000420201EB82010C4A2718623ACB7AD25D3D
:104B2000C9F10707FA4063F35F02CA723AE057E13E
:104B30000000214220000020344D00207BC50108E8
:104B4000D657002086000020D64F0020FE492218AC
:104B5000FE4B895CC9F10702914001F08002011906
:104B600001EB410104EB440A13F8217042EA5702B9
:104B700003F82120012100EB400700BF01EB870C67
:104B80000CEB8A0202EB030C13F802801CF801CC38
:104B9000491C4FEACC1C4CEA580C89B203F802C0FD
:104BA0000C29EBD3401C00E094E080B210288FD396
:104BB000002703E0FFF732FC7F1CBFB2B742F9D3F6
:104BC00009F101001FFA80F9B9F1080FFFF47FAF76
:104BD0000020C5F1010100BF01EB4007DA4B1BF8D3
:104BE00007202718D243401C80B2DA551028F3D38F
:104BF0004FF00009002015B1012D2BD056E0D3490C
:104C0000002204EB440A00EB400700BF02EB870CD4
:104C10000CEB8A0303EB010811F803C098F801803C
:104C20004FEA4C0C521C4CEAD81C92B201F803C05B
:104C30000B2AEBD3021902EB420201EB8202C249BA
:104C40002718D37AC95DC9F10707F94063F35F01FB
:104C5000D1722BE0BC492218BC4B895CC9F1070218
:104C6000914001F08002011901EB410104EB440A7B
:104C700013F8217042EA570203F82120012100EBCA
:104C8000400700BF01EB870C0CEB8A0202EB030C20
:104C900013F802801CF801CC491C4FEACC1C4CEAEA
:104CA000580C89B203F802C00C29EBD3401C80B227
:104CB0001028A0D3002703E0FFF7B0FB7F1CBFB292
:104CC000B742F9D309F101001FFA80F9B9F1080FD1
:104CD00090D382E09C4A03EB401000BF10F81130E3
:104CE0009146DF43631802F8137000EB410702EBB3
:104CF00043037F78491CFF4389B25F701029EDD3CD
:104D0000DFF848B2022D4FF000084FEAD40A33D141
:104D10002F27584607EB47020AEB820211187F1E25
:104D200011F80C3D83544A783F044A733F0CF1D18B
:104D3000C8F10F010A190BEBD40319F812C009EBE3
:104D4000420083F800C090F801C083F801C0837866
:104D500009F81230C178417004E000BFFFF75EFB34
:104D60007F1CBFB2B742F9D308F101001FFA80F8E7
:104D7000B8F1100FCCD330E00020594600EB4003CF
:104D80000AEB83035A18401C177BCF54537B80B225
:104D900053702F28F2D304EB08020BEBD40319F85D
:104DA000127009EB420183F834724F7883F8357240
:104DB0008B7809F81230C8784870002704E000BFEB
:104DC000FFF72CFB7F1CBFB2B742F9D308F10100FB
:104DD0001FFA80F8B8F1100FCED30198801C16E1AD
:104DE0002039C9B2022D4FF0000071D2584A564BFB
:104DF00000EB011704EB000C401CD75D80B29B4612
:104E000003F80C701028F3D34FF00009002015B1FF
:104E1000012D2BD056E04D49002204EB440A00EB53
:104E2000400700BF02EB870C0CEB8A0303EB010881
:104E300011F803C098F801804FEA4C0C521C4CEA60
:104E4000D81C92B201F803C00B2AEBD3021902EB73
:104E5000420201EB82022718D37A1BF80710C9F12E
:104E60000707F94063F35F01D1722BE02218374B3B
:104E70001BF80210C9F10702914001F080020119EC
:104E800001EB410104EB440A13F8217042EA570296
:104E900003F82120012100EB400700BF01EB870C44
:104EA0000CEB8A0202EB030C13F802801CF801CC15
:104EB000491C4FEACC1C4CEA580C89B203F802C0DA
:104EC0000C29EBD3401C80B21028A0D3002705E0AA
:104ED0000EE000BFFFF7A2FA7F1CBFB2B742F9D3C2
:104EE00009F101001FFA80F9B9F1080F8ED38CE0A7
:104EF000DFF85CA0DFF850904FF0F00B4FF00F0898
:104F000000EB011327181AF8033009EB47024BEAAC
:104F1000131C401C09F817C048EA031380B25370F1
:104F20001028EDD3DFF824B0022D4FF000084FEA2F
:104F3000D40A39D12F27584607EB47020AEB8202E1
:104F4000111811F80C3D05E0744F0020344D00207D
:104F50007BC5010883547F1E4A783F044A733F0C87
:104F6000EAD1C8F10F010A190BEBD40319F812C0EA
:104F700009EB420083F800C090F801C083F801C03B
:104F8000837809F81230C178417003E0FFF746FAE0
:104F90007F1CBFB2B742F9D308F101001FFA80F8B5
:104FA000B8F1100FC6D330E00020594600EB4003A3
:104FB0000AEB83035A18401C177BCF54537B80B2F3
:104FC00053702F28F2D304EB08020BEBD40319F82B
:104FD000127009EB420183F834724F7883F835720E
:104FE0008B7809F81230C8784870002704E000BFB9
:104FF000FFF714FA7F1CBFB2B742F9D308F10100E2
:105000001FFA80F8B8F1100FCED30198401C019020
:10501000017800297FF40DAD5BE40022082817D247
:10502000DFE800F00406080A0C0E100409A00AE0EC
:105030000AA008E00BA006E00CA004E00DA002E02E
:105040000EA000E00FA003680B60808888808A7142
:1050500070470000D0C7C6DAC8D50000D0C7C6DA8E
:10506000D2BB0000D0C7C6DAB6FE0000D0C7C6DA91
:10507000C8FD0000D0C7C6DACBC40000D0C7C6DA6E
:10508000CEE50000D0C7C6DAC1F9000000210160FA
:10509000704710B50446082004F08EFD002802D0A9
:1050A0000021C0E9004110BD10B50446006804F0BD
:1050B0007CFD2046BDE8104004F077BD10B5002807
:1050C0000DD00446224633A0216804F0AFFD646889
:1050D000002CF7D1BDE8104030A004F0A7BD10BDF2
:1050E00070B5040006D02568084625B1FFF7D1FF4A
:1050F0002060456070BDFFF7CCFF206070BD70B5CB
:10510000040009D02068002806D0002145684160CD
:105110002068FFF7C9FF256070BD70B5050002D09B
:105120002C6814B107E0002070BD0846FFF7B1FFFE
:105130002860F8E7044660680028FBD10846FFF7BE
:10514000A8FF606070BD70B504000ED02068002814
:105150000BD04168002549B104460846496800293A
:10516000FAD16068FFF7A0FF656070BDFFF79CFF94
:10517000256070BD002800D00120704701004FF06D
:10518000000005D0401C4968C0B20029FAD1704720
:105190000020704725707C25700A00000A0A000074
:1051A00002F06DBC02F09EBC04F09AB84B48416816
:1051B000491D416041684FF46172B1FBF2F302FB9B
:1051C0001311002905D14168454A914201D30021BC
:1051D00041607047012080F31088404840680021FA
:1051E00081F310887047012181F310883B49496899
:1051F000002282F31088814201DB081A70476FF0A9
:105200000042101A0844704710B5FFF7CFFF354829
:105210000078012807D102F0FFFB02F0A8FCBDE8EE
:10522000104002F003BC10BD10B56FF0040000F098
:10523000E6FB2D482D4A01682848B1FBF2F3B1FB8B
:10524000F2F141F2883251430370052242804FF05F
:10525000E020026942F0020202614161016941F00D
:105260000101016110BD2DE9F0414FF0E02600245D
:1052700077691A49097800FB01F502F000FCB06972
:10528000B1698142FCD002D2A0EB010002E0A7EBA1
:105290000102104404440846AC42F1D3BDE8F04199
:1052A00002F020BC70B504460E48007878B1104872
:1052B000007860B9094D6888844203D3B4FBF0F0EC
:1052C00004F00EF86888B4FBF0F100FB11444FF4D1
:1052D0007A706043BDE87040C5E700008C00002094
:1052E0000000FF7FB30000204800002000127A0079
:1052F000AE000020F8B5534D0024ADF80040022266
:1053000069462846FCF7E1FE4E4EBDF8001045F612
:105310005A20903E81422BD0ADF800004AA150485F
:1053200004F090FC4E484FA11A3004F08BFC4C481E
:105330004FA1423004F086FC49490A20A1F87A00C6
:10534000C82021F87C0F4FF07E5048600C738860B5
:105350004C730120887302460E6134466946284624
:10536000FCF74DFE48223E492046FCF748FE04E08B
:1053700090223B493046FCF7A8FE0120FCF73CFB9D
:105380000220FCF739FB3EA0FDF74FFDF8BD1CB530
:105390003FA004F04BFC32494AA004F047FC3049DE
:1053A0004EA01A3104F042FC2D4951A0423104F0C4
:1053B0003DFC2B4CB4F86E1094F86D00CDE9000163
:1053C00014F86C3F4EA014F8012C14F8021C04F0E1
:1053D0002DFC6189607ACDE90001237AE279A17917
:1053E0004DA004F023FC606906F0DCFC02460B468D
:1053F0004FA004F01BFC217F53A004F017FCA06910
:1054000006F0D0FC02460B4655A004F00FFC617F6D
:1054100059A004F00BFC5D495DA004F007FCA17FDE
:105420005FA004F003FC68A0216A04F0FFFBBDE864
:105430001C4017A004F0FABB30BF704772B670472B
:1054400062B6704790000808323031392D352D385A
:1054500020393A34383A3434203831306D73000012
:1054600058580020D6C7BBDBB9A4B5D8000000004F
:105470004A5843595F594323232323230000000044
:105480007573722E636E2341542B530D0000000080
:105490002A2A2A2A2A2A2A2A2A2A2A2A2A2A2A2A6C
:1054A0002A2A2ACFB5CDB3C5E4D6C3B1ED2A2A2A1C
:1054B0002A2A2A2A2A2A2A2A2A2A2A2A2A2A2A2A4C
:1054C0000A000000CFB5CDB3C5E4D6C3B1EDB8FC3A
:1054D000B8C4CAB1BCE43A25730A0000B9ABCBBE6C
:1054E0002FCFEEC4BFC3FBB3C6A3BA25730A000017
:1054F000C9E8B1B8B1E0BAC5A3BA25730A00000083
:10550000534F4B455441A3BA25642E25642E256480
:105510002E25642C25640A00534F4B455442A3BAF0
:1055200025642E25642E25642E25642C25640A000E
:10553000504D322E35B7DBB3BECFB5CAFD4BD6B515
:105540003A252E31660A0000504D322E35B7DBB3B6
:10555000BECFB5CAFD62D6B53A25640A0000000088
:10556000504D3130B7DBB3BECFB5CAFD4BD6B53ADF
:10557000252E31660A000000504D3130B7DBB3BE36
:10558000CFB5CAFD62D6B53A25640A005AC30108F0
:10559000B3CCD0F2B0E6B1BE3A25730A00000000E9
:1055A0004C4544CFD4CABEB7BDCABD3A2564A1BEDE
:1055B00031A3BAD5FDCFD4202030A3BAB7B4CFD40D
:1055C000CABEA1BF0A000000CFB5CDB3C5E4D6C3A3
:1055D000B1EDCBF9D4DA466C617368B5D8D6B7CEE5
:1055E000AA3A307825780A0070477047CD490A8872
:1055F0005206FCD5CB4AC1B2121D11807047FCF790
:10560000FBBFC9494FF4006008607047C6494FF4BA
:105610000060091F0860704730B587B0012144F26F
:10562000040000F0D4FDC14D284600F031FB6815A0
:10563000ADF8100003208DF81200BB4C18208DF837
:105640001300143C04A9204600F043FA2015ADF8DD
:10565000100004208DF8130004A9204600F039FA48
:1056600025208DF8140002208DF8150000248DF8F7
:10567000164001208DF8170005A800F080F94FF4BE
:1056800016500090ADF808400C20ADF80440ADF87D
:105690000A00ADF80640ADF80C406946284600F017
:1056A00027FB012240F22551284600F09EFB0121F4
:1056B000284600F090FB4021284600F04AFC07B045
:1056C00030BD08B10020704799487047F8B51546BD
:1056D0000E46FFF7F6FF040034D0E06900B18047C2
:1056E000002025E0A189012282F31088A28AADF86A
:1056F0000020002282F31088BDF800209142F2D9E8
:10570000315C238A6268D154012181F31088218A97
:10571000491C89B22182A289914201D300212182B0
:10572000A18A491CA182002181F31088401C80B20B
:10573000A842D7D32068BDE8F840012240F2277183
:1057400000F053BBF8BD0A4601460020BEE708B58D
:1057500000F0CAF80121042000F039FD03208DF883
:10576000020010208DF80300C001ADF800006E4863
:105770006946143800F0ADF9BDE808404CE713B5B0
:10578000012201A9FFF7A2FF1CBD10B5FFF799FF89
:1057900000281FD00246012080F31088538B002080
:1057A00080F31088002B15D0148B93681B5D0B7051
:1057B000012181F31088118B491C89B21183D3898F
:1057C000994200D31083508B401E5083002080F3F9
:1057D0001088012010BD00B5FFF773FF002803D02B
:1057E000002101824182818200BD00B5FFF769FF7F
:1057F000002803D00021C1820183418300BD1FB571
:10580000694600900020ADF80400ADF80600ADF840
:105810000800ADF80C000C20ADF80A00434800F079
:1058200067FA1FBD2DE9F0410446006840F225519A
:1058300000F092FB0025B8B1206800F026FBE28A58
:10584000A168C0B28854E18A491C8AB2E282E18927
:105850008A4200D3E582628B8A4202D2618B491C64
:105860006183616A01B1884740F227773946206831
:1058700000F072FB40F2266690B1A08AC0B9002207
:105880003946206800F0B1FA31462068BDE8F041A1
:10589000012200F0AABAA08A401EA082BDE8F081D1
:1058A0003146206800F058FB0028F7D0A08A70B17C
:1058B000618A6068415C206800F0E3FA608A401CFD
:1058C00080B26082A1898842E5D36582E3E7002245
:1058D0003146206800F089FA206A0028DED0BDE851
:1058E000F041004712489DE711481049016000F15E
:1058F0002801416000F5856181604FF480618181FC
:10590000C181002101824182C18201834183818260
:10591000AFF20731C161AFF215310162AFF221314F
:1059200041627047004400401408014000380140C3
:10593000E85800200948804709480047FEE7FEE78D
:10594000FEE7FEE7FEE7FEE7FEE7FEE7FEE7FEE72F
:1059500004480549054A064B7047000099120108A2
:105960003101010840BD002040C7002040BF002099
:1059700040BF00202849084328490860704770B597
:105980000F23C47801780122F4B1244C24684578AF
:1059900004F4E064C4F5E064240AC4F10406E340BE
:1059A0008478B5401C402C4301F1E021230181F8AB
:1059B0000034007800F01F018A404009800000F1A7
:1059C000E020C0F8002170BD01F01F0082404809AE
:1059D000800000F1E020C0F8802170BD104A114025
:1059E00001430E48001F016070470C4A121D002938
:1059F000116801D0014300E08143116070474FF00E
:105A0000E0210428086903D020F0040008617047F1
:105A100040F00400FAE700000000FA050CED00E099
:105A200080FFFF1F914910B5884206D10121042053
:105A300000F0DFFB002104203BE08D49884206D1C5
:105A40000121082000F0D5FB0021082031E0894920
:105A5000884206D10121102000F0CBFB002110204C
:105A600027E08549884206D10121202000F0C1FBB2
:105A7000002120201DE08149884206D101214020DB
:105A800000F0B7FB0021402013E07D49884206D199
:105A90000121802000F0ADFB0021802009E0794940
:105AA00088420AD184150121204600F0A2FB002182
:105AB0002046BDE8104000F09CBB10BD10B5012190
:105AC000084600F096FB0021BDE81040012000F0E0
:105AD00090BBF0B5CA78002502F00F03D20601D5BD
